{
  "_format": "hh-sol-artifact-1",
  "contractName": "FlewPayToken",
  "sourceName": "contracts/FlewPayToken.sol",
  "abi": [
    {
      "inputs": [
        {
          "internalType": "address",
          "name": "initialAdmin",
          "type": "address"
        }
      ],
      "stateMutability": "nonpayable",
      "type": "constructor"
    },
    {
      "inputs": [],
      "name": "InvalidShortString",
      "type": "error"
    },
    {
      "inputs": [
        {
          "internalType": "string",
          "name": "str",
          "type": "string"
        }
      ],
      "name": "StringTooLong",
      "type": "error"
    },
    {
      "anonymous": false,
      "inputs": [
        {
          "indexed": true,
          "internalType": "address",
          "name": "owner",
          "type": "address"
        },
        {
          "indexed": true,
          "internalType": "address",
          "name": "spender",
          "type": "address"
        },
        {
          "indexed": false,
          "internalType": "uint256",
          "name": "value",
          "type": "uint256"
        }
      ],
      "name": "Approval",
      "type": "event"
    },
    {
      "anonymous": false,
      "inputs": [],
      "name": "EIP712DomainChanged",
      "type": "event"
    },
    {
      "anonymous": false,
      "inputs": [
        {
          "indexed": false,
          "internalType": "address",
          "name": "account",
          "type": "address"
        }
      ],
      "name": "Paused",
      "type": "event"
    },
    {
      "anonymous": false,
      "inputs": [
        {
          "indexed": true,
          "internalType": "bytes32",
          "name": "role",
          "type": "bytes32"
        },
        {
          "indexed": true,
          "internalType": "bytes32",
          "name": "previousAdminRole",
          "type": "bytes32"
        },
        {
          "indexed": true,
          "internalType": "bytes32",
          "name": "newAdminRole",
          "type": "bytes32"
        }
      ],
      "name": "RoleAdminChanged",
      "type": "event"
    },
    {
      "anonymous": false,
      "inputs": [
        {
          "indexed": true,
          "internalType": "bytes32",
          "name": "role",
          "type": "bytes32"
        },
        {
          "indexed": true,
          "internalType": "address",
          "name": "account",
          "type": "address"
        },
        {
          "indexed": true,
          "internalType": "address",
          "name": "sender",
          "type": "address"
        }
      ],
      "name": "RoleGranted",
      "type": "event"
    },
    {
      "anonymous": false,
      "inputs": [
        {
          "indexed": true,
          "internalType": "bytes32",
          "name": "role",
          "type": "bytes32"
        },
        {
          "indexed": true,
          "internalType": "address",
          "name": "account",
          "type": "address"
        },
        {
          "indexed": true,
          "internalType": "address",
          "name": "sender",
          "type": "address"
        }
      ],
      "name": "RoleRevoked",
      "type": "event"
    },
    {
      "anonymous": false,
      "inputs": [
        {
          "indexed": true,
          "internalType": "address",
          "name": "from",
          "type": "address"
        },
        {
          "indexed": false,
          "internalType": "uint256",
          "name": "amount",
          "type": "uint256"
        }
      ],
      "name": "TokensBurned",
      "type": "event"
    },
    {
      "anonymous": false,
      "inputs": [
        {
          "indexed": true,
          "internalType": "address",
          "name": "to",
          "type": "address"
        },
        {
          "indexed": false,
          "internalType": "uint256",
          "name": "amount",
          "type": "uint256"
        }
      ],
      "name": "TokensMinted",
      "type": "event"
    },
    {
      "anonymous": false,
      "inputs": [],
      "name": "TokensPaused",
      "type": "event"
    },
    {
      "anonymous": false,
      "inputs": [],
      "name": "TokensUnpaused",
      "type": "event"
    },
    {
      "anonymous": false,
      "inputs": [
        {
          "indexed": true,
          "internalType": "address",
          "name": "from",
          "type": "address"
        },
        {
          "indexed": true,
          "internalType": "address",
          "name": "to",
          "type": "address"
        },
        {
          "indexed": false,
          "internalType": "uint256",
          "name": "value",
          "type": "uint256"
        }
      ],
      "name": "Transfer",
      "type": "event"
    },
    {
      "anonymous": false,
      "inputs": [
        {
          "indexed": false,
          "internalType": "address",
          "name": "account",
          "type": "address"
        }
      ],
      "name": "Unpaused",
      "type": "event"
    },
    {
      "inputs": [],
      "name": "DEFAULT_ADMIN_ROLE",
      "outputs": [
        {
          "internalType": "bytes32",
          "name": "",
          "type": "bytes32"
        }
      ],
      "stateMutability": "view",
      "type": "function"
    },
    {
      "inputs": [],
      "name": "DOMAIN_SEPARATOR",
      "outputs": [
        {
          "internalType": "bytes32",
          "name": "",
          "type": "bytes32"
        }
      ],
      "stateMutability": "view",
      "type": "function"
    },
    {
      "inputs": [],
      "name": "MINTER_ROLE",
      "outputs": [
        {
          "internalType": "bytes32",
          "name": "",
          "type": "bytes32"
        }
      ],
      "stateMutability": "view",
      "type": "function"
    },
    {
      "inputs": [],
      "name": "PAUSER_ROLE",
      "outputs": [
        {
          "internalType": "bytes32",
          "name": "",
          "type": "bytes32"
        }
      ],
      "stateMutability": "view",
      "type": "function"
    },
    {
      "inputs": [
        {
          "internalType": "address",
          "name": "owner",
          "type": "address"
        },
        {
          "internalType": "address",
          "name": "spender",
          "type": "address"
        }
      ],
      "name": "allowance",
      "outputs": [
        {
          "internalType": "uint256",
          "name": "",
          "type": "uint256"
        }
      ],
      "stateMutability": "view",
      "type": "function"
    },
    {
      "inputs": [
        {
          "internalType": "address",
          "name": "spender",
          "type": "address"
        },
        {
          "internalType": "uint256",
          "name": "amount",
          "type": "uint256"
        }
      ],
      "name": "approve",
      "outputs": [
        {
          "internalType": "bool",
          "name": "",
          "type": "bool"
        }
      ],
      "stateMutability": "nonpayable",
      "type": "function"
    },
    {
      "inputs": [
        {
          "internalType": "address",
          "name": "account",
          "type": "address"
        }
      ],
      "name": "balanceOf",
      "outputs": [
        {
          "internalType": "uint256",
          "name": "",
          "type": "uint256"
        }
      ],
      "stateMutability": "view",
      "type": "function"
    },
    {
      "inputs": [
        {
          "internalType": "uint256",
          "name": "amount",
          "type": "uint256"
        }
      ],
      "name": "burn",
      "outputs": [],
      "stateMutability": "nonpayable",
      "type": "function"
    },
    {
      "inputs": [
        {
          "internalType": "address",
          "name": "account",
          "type": "address"
        },
        {
          "internalType": "uint256",
          "name": "amount",
          "type": "uint256"
        }
      ],
      "name": "burnFrom",
      "outputs": [],
      "stateMutability": "nonpayable",
      "type": "function"
    },
    {
      "inputs": [],
      "name": "decimals",
      "outputs": [
        {
          "internalType": "uint8",
          "name": "",
          "type": "uint8"
        }
      ],
      "stateMutability": "view",
      "type": "function"
    },
    {
      "inputs": [
        {
          "internalType": "address",
          "name": "spender",
          "type": "address"
        },
        {
          "internalType": "uint256",
          "name": "subtractedValue",
          "type": "uint256"
        }
      ],
      "name": "decreaseAllowance",
      "outputs": [
        {
          "internalType": "bool",
          "name": "",
          "type": "bool"
        }
      ],
      "stateMutability": "nonpayable",
      "type": "function"
    },
    {
      "inputs": [],
      "name": "eip712Domain",
      "outputs": [
        {
          "internalType": "bytes1",
          "name": "fields",
          "type": "bytes1"
        },
        {
          "internalType": "string",
          "name": "name",
          "type": "string"
        },
        {
          "internalType": "string",
          "name": "version",
          "type": "string"
        },
        {
          "internalType": "uint256",
          "name": "chainId",
          "type": "uint256"
        },
        {
          "internalType": "address",
          "name": "verifyingContract",
          "type": "address"
        },
        {
          "internalType": "bytes32",
          "name": "salt",
          "type": "bytes32"
        },
        {
          "internalType": "uint256[]",
          "name": "extensions",
          "type": "uint256[]"
        }
      ],
      "stateMutability": "view",
      "type": "function"
    },
    {
      "inputs": [
        {
          "internalType": "bytes32",
          "name": "role",
          "type": "bytes32"
        }
      ],
      "name": "getRoleAdmin",
      "outputs": [
        {
          "internalType": "bytes32",
          "name": "",
          "type": "bytes32"
        }
      ],
      "stateMutability": "view",
      "type": "function"
    },
    {
      "inputs": [
        {
          "internalType": "bytes32",
          "name": "role",
          "type": "bytes32"
        },
        {
          "internalType": "address",
          "name": "account",
          "type": "address"
        }
      ],
      "name": "grantRole",
      "outputs": [],
      "stateMutability": "nonpayable",
      "type": "function"
    },
    {
      "inputs": [
        {
          "internalType": "bytes32",
          "name": "role",
          "type": "bytes32"
        },
        {
          "internalType": "address",
          "name": "account",
          "type": "address"
        }
      ],
      "name": "hasRole",
      "outputs": [
        {
          "internalType": "bool",
          "name": "",
          "type": "bool"
        }
      ],
      "stateMutability": "view",
      "type": "function"
    },
    {
      "inputs": [
        {
          "internalType": "address",
          "name": "spender",
          "type": "address"
        },
        {
          "internalType": "uint256",
          "name": "addedValue",
          "type": "uint256"
        }
      ],
      "name": "increaseAllowance",
      "outputs": [
        {
          "internalType": "bool",
          "name": "",
          "type": "bool"
        }
      ],
      "stateMutability": "nonpayable",
      "type": "function"
    },
    {
      "inputs": [
        {
          "internalType": "address",
          "name": "to",
          "type": "address"
        },
        {
          "internalType": "uint256",
          "name": "amount",
          "type": "uint256"
        }
      ],
      "name": "mint",
      "outputs": [],
      "stateMutability": "nonpayable",
      "type": "function"
    },
    {
      "inputs": [],
      "name": "name",
      "outputs": [
        {
          "internalType": "string",
          "name": "",
          "type": "string"
        }
      ],
      "stateMutability": "view",
      "type": "function"
    },
    {
      "inputs": [
        {
          "internalType": "address",
          "name": "owner",
          "type": "address"
        }
      ],
      "name": "nonces",
      "outputs": [
        {
          "internalType": "uint256",
          "name": "",
          "type": "uint256"
        }
      ],
      "stateMutability": "view",
      "type": "function"
    },
    {
      "inputs": [],
      "name": "pause",
      "outputs": [],
      "stateMutability": "nonpayable",
      "type": "function"
    },
    {
      "inputs": [],
      "name": "paused",
      "outputs": [
        {
          "internalType": "bool",
          "name": "",
          "type": "bool"
        }
      ],
      "stateMutability": "view",
      "type": "function"
    },
    {
      "inputs": [
        {
          "internalType": "address",
          "name": "owner",
          "type": "address"
        },
        {
          "internalType": "address",
          "name": "spender",
          "type": "address"
        },
        {
          "internalType": "uint256",
          "name": "value",
          "type": "uint256"
        },
        {
          "internalType": "uint256",
          "name": "deadline",
          "type": "uint256"
        },
        {
          "internalType": "uint8",
          "name": "v",
          "type": "uint8"
        },
        {
          "internalType": "bytes32",
          "name": "r",
          "type": "bytes32"
        },
        {
          "internalType": "bytes32",
          "name": "s",
          "type": "bytes32"
        }
      ],
      "name": "permit",
      "outputs": [],
      "stateMutability": "nonpayable",
      "type": "function"
    },
    {
      "inputs": [
        {
          "internalType": "bytes32",
          "name": "role",
          "type": "bytes32"
        },
        {
          "internalType": "address",
          "name": "account",
          "type": "address"
        }
      ],
      "name": "renounceRole",
      "outputs": [],
      "stateMutability": "nonpayable",
      "type": "function"
    },
    {
      "inputs": [
        {
          "internalType": "bytes32",
          "name": "role",
          "type": "bytes32"
        },
        {
          "internalType": "address",
          "name": "account",
          "type": "address"
        }
      ],
      "name": "revokeRole",
      "outputs": [],
      "stateMutability": "nonpayable",
      "type": "function"
    },
    {
      "inputs": [
        {
          "internalType": "bytes4",
          "name": "interfaceId",
          "type": "bytes4"
        }
      ],
      "name": "supportsInterface",
      "outputs": [
        {
          "internalType": "bool",
          "name": "",
          "type": "bool"
        }
      ],
      "stateMutability": "view",
      "type": "function"
    },
    {
      "inputs": [],
      "name": "symbol",
      "outputs": [
        {
          "internalType": "string",
          "name": "",
          "type": "string"
        }
      ],
      "stateMutability": "view",
      "type": "function"
    },
    {
      "inputs": [],
      "name": "totalSupply",
      "outputs": [
        {
          "internalType": "uint256",
          "name": "",
          "type": "uint256"
        }
      ],
      "stateMutability": "view",
      "type": "function"
    },
    {
      "inputs": [
        {
          "internalType": "address",
          "name": "to",
          "type": "address"
        },
        {
          "internalType": "uint256",
          "name": "amount",
          "type": "uint256"
        }
      ],
      "name": "transfer",
      "outputs": [
        {
          "internalType": "bool",
          "name": "",
          "type": "bool"
        }
      ],
      "stateMutability": "nonpayable",
      "type": "function"
    },
    {
      "inputs": [
        {
          "internalType": "address",
          "name": "from",
          "type": "address"
        },
        {
          "internalType": "address",
          "name": "to",
          "type": "address"
        },
        {
          "internalType": "uint256",
          "name": "amount",
          "type": "uint256"
        }
      ],
      "name": "transferFrom",
      "outputs": [
        {
          "internalType": "bool",
          "name": "",
          "type": "bool"
        }
      ],
      "stateMutability": "nonpayable",
      "type": "function"
    },
    {
      "inputs": [],
      "name": "unpause",
      "outputs": [],
      "stateMutability": "nonpayable",
      "type": "function"
    }
  ],
  "bytecode": "0x6101606040523480156200001257600080fd5b506040516200236438038062002364833981016040819052620000359162000341565b6040518060400160405280600c81526020016b233632bba830bcaa37b5b2b760a11b81525080604051806040016040528060018152602001603160f81b8152506040518060400160405280600c81526020016b233632bba830bcaa37b5b2b760a11b81525060405180604001604052806006815260200165464c5550415960d01b8152508160039081620000ca91906200041a565b506004620000d982826200041a565b50506005805460ff1916905550620000f382600762000208565b610120526200010481600862000208565b61014052815160208084019190912060e052815190820120610100524660a0526200019260e05161010051604080517f8b73c3c69bb8fe3d512ecc4cf759cc79239f7b179b0ffacaa9a75d522b39400f60208201529081019290925260608201524660808201523060a082015260009060c00160405160208183030381529060405280519060200120905090565b60805250503060c05250620001a960008262000241565b620001d57f9f2df0fed2c77648de5860a4cc508cd0818c85b8b8a1ab4ceeef8d981c8956a68262000241565b620002017f65d7a28e3265b37a6474929f336521b332c1681b933f6cb9f3376673440d862a8262000241565b506200055c565b60006020835110156200022857620002208362000251565b90506200023b565b816200023584826200041a565b5060ff90505b92915050565b6200024d82826200029d565b5050565b600080829050601f8151111562000288578260405163305a27a960e01b81526004016200027f9190620004e6565b60405180910390fd5b8051620002958262000537565b179392505050565b60008281526006602090815260408083206001600160a01b038516845290915290205460ff166200024d5760008281526006602090815260408083206001600160a01b03851684529091529020805460ff19166001179055620002fd3390565b6001600160a01b0316816001600160a01b0316837f2f8788117e7eff1d82e926ec794901d17c78024a50270940304540a733656f0d60405160405180910390a45050565b6000602082840312156200035457600080fd5b81516001600160a01b03811681146200036c57600080fd5b9392505050565b634e487b7160e01b600052604160045260246000fd5b600181811c908216806200039e57607f821691505b602082108103620003bf57634e487b7160e01b600052602260045260246000fd5b50919050565b601f82111562000415576000816000526020600020601f850160051c81016020861015620003f05750805b601f850160051c820191505b818110156200041157828155600101620003fc565b5050505b505050565b81516001600160401b0381111562000436576200043662000373565b6200044e8162000447845462000389565b84620003c5565b602080601f8311600181146200048657600084156200046d5750858301515b600019600386901b1c1916600185901b17855562000411565b600085815260208120601f198616915b82811015620004b75788860151825594840194600190910190840162000496565b5085821015620004d65787850151600019600388901b60f8161c191681555b5050505050600190811b01905550565b60006020808352835180602085015260005b818110156200051657858101830151858201604001528201620004f8565b506000604082860101526040601f19601f8301168501019250505092915050565b80516020808301519190811015620003bf5760001960209190910360031b1b16919050565b60805160a05160c05160e051610100516101205161014051611dad620005b7600039600061080c015260006107e101526000610f8d01526000610f6501526000610ec001526000610eea01526000610f140152611dad6000f3fe608060405234801561001057600080fd5b50600436106101da5760003560e01c806370a0823111610104578063a217fddf116100a2578063d539139311610071578063d5391393146103d0578063d547741f146103f7578063dd62ed3e1461040a578063e63ab1e91461041d57600080fd5b8063a217fddf1461038f578063a457c2d714610397578063a9059cbb146103aa578063d505accf146103bd57600080fd5b80638456cb59116100de5780638456cb591461035157806384b0196e1461035957806391d148541461037457806395d89b411461038757600080fd5b806370a082311461030257806379cc67901461032b5780637ecebe001461033e57600080fd5b8063313ce5671161017c5780633f4ba83a1161014b5780633f4ba83a146102c957806340c10f19146102d157806342966c68146102e45780635c975abb146102f757600080fd5b8063313ce5671461028c5780633644e5151461029b57806336568abe146102a357806339509351146102b657600080fd5b806318160ddd116101b857806318160ddd1461022f57806323b872dd14610241578063248a9ca3146102545780632f2ff15d1461027757600080fd5b806301ffc9a7146101df57806306fdde0314610207578063095ea7b31461021c575b600080fd5b6101f26101ed366004611990565b610444565b60405190151581526020015b60405180910390f35b61020f61047b565b6040516101fe9190611a0a565b6101f261022a366004611a39565b61050d565b6002545b6040519081526020016101fe565b6101f261024f366004611a63565b610525565b610233610262366004611a9f565b60009081526006602052604090206001015490565b61028a610285366004611ab8565b610549565b005b604051601281526020016101fe565b610233610573565b61028a6102b1366004611ab8565b610582565b6101f26102c4366004611a39565b610605565b61028a610627565b61028a6102df366004611a39565b610685565b61028a6102f2366004611a9f565b610701565b60055460ff166101f2565b610233610310366004611ae4565b6001600160a01b031660009081526020819052604090205490565b61028a610339366004611a39565b610742565b61023361034c366004611ae4565b610757565b61028a610775565b6103616107d3565b6040516101fe9796959493929190611aff565b6101f2610382366004611ab8565b61085c565b61020f610887565b610233600081565b6101f26103a5366004611a39565b610896565b6101f26103b8366004611a39565b610911565b61028a6103cb366004611b98565b61091f565b6102337f9f2df0fed2c77648de5860a4cc508cd0818c85b8b8a1ab4ceeef8d981c8956a681565b61028a610405366004611ab8565b610a83565b610233610418366004611c0b565b610aa8565b6102337f65d7a28e3265b37a6474929f336521b332c1681b933f6cb9f3376673440d862a81565b60006001600160e01b03198216637965db0b60e01b148061047557506301ffc9a760e01b6001600160e01b03198316145b92915050565b60606003805461048a90611c35565b80601f01602080910402602001604051908101604052809291908181526020018280546104b690611c35565b80156105035780601f106104d857610100808354040283529160200191610503565b820191906000526020600020905b8154815290600101906020018083116104e657829003601f168201915b5050505050905090565b60003361051b818585610ad3565b5060019392505050565b600033610533858285610bf7565b61053e858585610c71565b506001949350505050565b60008281526006602052604090206001015461056481610e20565b61056e8383610e2d565b505050565b600061057d610eb3565b905090565b6001600160a01b03811633146105f75760405162461bcd60e51b815260206004820152602f60248201527f416363657373436f6e74726f6c3a2063616e206f6e6c792072656e6f756e636560448201526e103937b632b9903337b91039b2b63360891b60648201526084015b60405180910390fd5b6106018282610fde565b5050565b60003361051b8185856106188383610aa8565b6106229190611c7f565b610ad3565b7f65d7a28e3265b37a6474929f336521b332c1681b933f6cb9f3376673440d862a61065181610e20565b610659611045565b6040517fc8f901b8cf21a6a5cdf2f3ad433c95313deda27ee018f6f93b1029cc8840536990600090a150565b7f9f2df0fed2c77648de5860a4cc508cd0818c85b8b8a1ab4ceeef8d981c8956a66106af81610e20565b6106b98383611097565b826001600160a01b03167f3f2c9d57c068687834f0de942a9babb9e5acab57d516d3480a3c16ee165a4273836040516106f491815260200190565b60405180910390a2505050565b61070a81611162565b60405181815233907ffd38818f5291bf0bb3a2a48aadc06ba8757865d1dabd804585338aab3009dcb69060200160405180910390a250565b61074d823383610bf7565b6106018282611168565b6001600160a01b038116600090815260096020526040812054610475565b7f65d7a28e3265b37a6474929f336521b332c1681b933f6cb9f3376673440d862a61079f81610e20565b6107a76112a6565b6040517fdee1c8f0f0f9036e625a3681463d8a017c07047c5f65a7e07709b1777a32489290600090a150565b6000606080828080836108077f000000000000000000000000000000000000000000000000000000000000000060076112e3565b6108327f000000000000000000000000000000000000000000000000000000000000000060086112e3565b60408051600080825260208201909252600f60f81b9b939a50919850469750309650945092509050565b60009182526006602090815260408084206001600160a01b0393909316845291905290205460ff1690565b60606004805461048a90611c35565b600033816108a48286610aa8565b9050838110156109045760405162461bcd60e51b815260206004820152602560248201527f45524332303a2064656372656173656420616c6c6f77616e63652062656c6f77604482015264207a65726f60d81b60648201526084016105ee565b61053e8286868403610ad3565b60003361051b818585610c71565b8342111561096f5760405162461bcd60e51b815260206004820152601d60248201527f45524332305065726d69743a206578706972656420646561646c696e6500000060448201526064016105ee565b60007f6e71edae12b1b97f4d1f60370fef10105fa2faae0126114a169c64845d6126c988888861099e8c61138e565b6040805160208101969096526001600160a01b0394851690860152929091166060840152608083015260a082015260c0810186905260e00160405160208183030381529060405280519060200120905060006109f9826113b6565b90506000610a09828787876113e3565b9050896001600160a01b0316816001600160a01b031614610a6c5760405162461bcd60e51b815260206004820152601e60248201527f45524332305065726d69743a20696e76616c6964207369676e6174757265000060448201526064016105ee565b610a778a8a8a610ad3565b50505050505050505050565b600082815260066020526040902060010154610a9e81610e20565b61056e8383610fde565b6001600160a01b03918216600090815260016020908152604080832093909416825291909152205490565b6001600160a01b038316610b355760405162461bcd60e51b8152602060048201526024808201527f45524332303a20617070726f76652066726f6d20746865207a65726f206164646044820152637265737360e01b60648201526084016105ee565b6001600160a01b038216610b965760405162461bcd60e51b815260206004820152602260248201527f45524332303a20617070726f766520746f20746865207a65726f206164647265604482015261737360f01b60648201526084016105ee565b6001600160a01b0383811660008181526001602090815260408083209487168084529482529182902085905590518481527f8c5be1e5ebec7d5bd14f71427d1e84f3dd0314c0f7b2291e5b200ac8c7c3b925910160405180910390a3505050565b6000610c038484610aa8565b90506000198114610c6b5781811015610c5e5760405162461bcd60e51b815260206004820152601d60248201527f45524332303a20696e73756666696369656e7420616c6c6f77616e636500000060448201526064016105ee565b610c6b8484848403610ad3565b50505050565b6001600160a01b038316610cd55760405162461bcd60e51b815260206004820152602560248201527f45524332303a207472616e736665722066726f6d20746865207a65726f206164604482015264647265737360d81b60648201526084016105ee565b6001600160a01b038216610d375760405162461bcd60e51b815260206004820152602360248201527f45524332303a207472616e7366657220746f20746865207a65726f206164647260448201526265737360e81b60648201526084016105ee565b610d4283838361140b565b6001600160a01b03831660009081526020819052604090205481811015610dba5760405162461bcd60e51b815260206004820152602660248201527f45524332303a207472616e7366657220616d6f756e7420657863656564732062604482015265616c616e636560d01b60648201526084016105ee565b6001600160a01b03848116600081815260208181526040808320878703905593871680835291849020805487019055925185815290927fddf252ad1be2c89b69c2b068fc378daa952ba7f163c4a11628f55a4df523b3ef910160405180910390a3610c6b565b610e2a8133611416565b50565b610e37828261085c565b6106015760008281526006602090815260408083206001600160a01b03851684529091529020805460ff19166001179055610e6f3390565b6001600160a01b0316816001600160a01b0316837f2f8788117e7eff1d82e926ec794901d17c78024a50270940304540a733656f0d60405160405180910390a45050565b6000306001600160a01b037f000000000000000000000000000000000000000000000000000000000000000016148015610f0c57507f000000000000000000000000000000000000000000000000000000000000000046145b15610f3657507f000000000000000000000000000000000000000000000000000000000000000090565b61057d604080517f8b73c3c69bb8fe3d512ecc4cf759cc79239f7b179b0ffacaa9a75d522b39400f60208201527f0000000000000000000000000000000000000000000000000000000000000000918101919091527f000000000000000000000000000000000000000000000000000000000000000060608201524660808201523060a082015260009060c00160405160208183030381529060405280519060200120905090565b610fe8828261085c565b156106015760008281526006602090815260408083206001600160a01b0385168085529252808320805460ff1916905551339285917ff6391f5c32d9c69d2a47ea670b442974b53935d1edc7fd64eb21e047a839171b9190a45050565b61104d61146f565b6005805460ff191690557f5db9ee0a495bf2e6ff9c91a7834c1ba4fdd244a5e8aa4e537bd38aeae4b073aa335b6040516001600160a01b03909116815260200160405180910390a1565b6001600160a01b0382166110ed5760405162461bcd60e51b815260206004820152601f60248201527f45524332303a206d696e7420746f20746865207a65726f20616464726573730060448201526064016105ee565b6110f96000838361140b565b806002600082825461110b9190611c7f565b90915550506001600160a01b038216600081815260208181526040808320805486019055518481527fddf252ad1be2c89b69c2b068fc378daa952ba7f163c4a11628f55a4df523b3ef910160405180910390a35050565b610e2a33825b6001600160a01b0382166111c85760405162461bcd60e51b815260206004820152602160248201527f45524332303a206275726e2066726f6d20746865207a65726f206164647265736044820152607360f81b60648201526084016105ee565b6111d48260008361140b565b6001600160a01b038216600090815260208190526040902054818110156112485760405162461bcd60e51b815260206004820152602260248201527f45524332303a206275726e20616d6f756e7420657863656564732062616c616e604482015261636560f01b60648201526084016105ee565b6001600160a01b0383166000818152602081815260408083208686039055600280548790039055518581529192917fddf252ad1be2c89b69c2b068fc378daa952ba7f163c4a11628f55a4df523b3ef910160405180910390a3505050565b6112ae6114ba565b6005805460ff191660011790557f62e78cea01bee320cd4e420270b5ea74000d11b0c9f74754ebdbfc544b05a25861107a3390565b606060ff83146112fd576112f683611500565b9050610475565b81805461130990611c35565b80601f016020809104026020016040519081016040528092919081815260200182805461133590611c35565b80156113825780601f1061135757610100808354040283529160200191611382565b820191906000526020600020905b81548152906001019060200180831161136557829003601f168201915b50505050509050610475565b6001600160a01b03811660009081526009602052604090208054600181018255905b50919050565b60006104756113c3610eb3565b8360405161190160f01b8152600281019290925260228201526042902090565b60008060006113f48787878761153f565b9150915061140181611603565b5095945050505050565b61056e83838361174d565b611420828261085c565b6106015761142d816117b3565b6114388360206117c5565b604051602001611449929190611ca8565b60408051601f198184030181529082905262461bcd60e51b82526105ee91600401611a0a565b60055460ff166114b85760405162461bcd60e51b815260206004820152601460248201527314185d5cd8589b194e881b9bdd081c185d5cd95960621b60448201526064016105ee565b565b60055460ff16156114b85760405162461bcd60e51b815260206004820152601060248201526f14185d5cd8589b194e881c185d5cd95960821b60448201526064016105ee565b6060600061150d83611968565b604080516020808252818301909252919250600091906020820181803683375050509182525060208101929092525090565b6000807f7fffffffffffffffffffffffffffffff5d576e7357a4501ddfe92f46681b20a083111561157657506000905060036115fa565b6040805160008082526020820180845289905260ff881692820192909252606081018690526080810185905260019060a0016020604051602081039080840390855afa1580156115ca573d6000803e3d6000fd5b5050604051601f1901519150506001600160a01b0381166115f3576000600192509250506115fa565b9150600090505b94509492505050565b600081600481111561161757611617611d1d565b0361161f5750565b600181600481111561163357611633611d1d565b036116805760405162461bcd60e51b815260206004820152601860248201527f45434453413a20696e76616c6964207369676e6174757265000000000000000060448201526064016105ee565b600281600481111561169457611694611d1d565b036116e15760405162461bcd60e51b815260206004820152601f60248201527f45434453413a20696e76616c6964207369676e6174757265206c656e6774680060448201526064016105ee565b60038160048111156116f5576116f5611d1d565b03610e2a5760405162461bcd60e51b815260206004820152602260248201527f45434453413a20696e76616c6964207369676e6174757265202773272076616c604482015261756560f01b60648201526084016105ee565b60055460ff161561056e5760405162461bcd60e51b815260206004820152602a60248201527f45524332305061757361626c653a20746f6b656e207472616e736665722077686044820152691a5b19481c185d5cd95960b21b60648201526084016105ee565b60606104756001600160a01b03831660145b606060006117d4836002611d33565b6117df906002611c7f565b67ffffffffffffffff8111156117f7576117f7611c92565b6040519080825280601f01601f191660200182016040528015611821576020820181803683370190505b509050600360fc1b8160008151811061183c5761183c611d4a565b60200101906001600160f81b031916908160001a905350600f60fb1b8160018151811061186b5761186b611d4a565b60200101906001600160f81b031916908160001a905350600061188f846002611d33565b61189a906001611c7f565b90505b6001811115611912576f181899199a1a9b1b9c1cb0b131b232b360811b85600f16601081106118ce576118ce611d4a565b1a60f81b8282815181106118e4576118e4611d4a565b60200101906001600160f81b031916908160001a90535060049490941c9361190b81611d60565b905061189d565b5083156119615760405162461bcd60e51b815260206004820181905260248201527f537472696e67733a20686578206c656e67746820696e73756666696369656e7460448201526064016105ee565b9392505050565b600060ff8216601f81111561047557604051632cd44ac360e21b815260040160405180910390fd5b6000602082840312156119a257600080fd5b81356001600160e01b03198116811461196157600080fd5b60005b838110156119d55781810151838201526020016119bd565b50506000910152565b600081518084526119f68160208601602086016119ba565b601f01601f19169290920160200192915050565b60208152600061196160208301846119de565b80356001600160a01b0381168114611a3457600080fd5b919050565b60008060408385031215611a4c57600080fd5b611a5583611a1d565b946020939093013593505050565b600080600060608486031215611a7857600080fd5b611a8184611a1d565b9250611a8f60208501611a1d565b9150604084013590509250925092565b600060208284031215611ab157600080fd5b5035919050565b60008060408385031215611acb57600080fd5b82359150611adb60208401611a1d565b90509250929050565b600060208284031215611af657600080fd5b61196182611a1d565b60ff60f81b881681526000602060e06020840152611b2060e084018a6119de565b8381036040850152611b32818a6119de565b606085018990526001600160a01b038816608086015260a0850187905284810360c08601528551808252602080880193509091019060005b81811015611b8657835183529284019291840191600101611b6a565b50909c9b505050505050505050505050565b600080600080600080600060e0888a031215611bb357600080fd5b611bbc88611a1d565b9650611bca60208901611a1d565b95506040880135945060608801359350608088013560ff81168114611bee57600080fd5b9699959850939692959460a0840135945060c09093013592915050565b60008060408385031215611c1e57600080fd5b611c2783611a1d565b9150611adb60208401611a1d565b600181811c90821680611c4957607f821691505b6020821081036113b057634e487b7160e01b600052602260045260246000fd5b634e487b7160e01b600052601160045260246000fd5b8082018082111561047557610475611c69565b634e487b7160e01b600052604160045260246000fd5b7f416363657373436f6e74726f6c3a206163636f756e7420000000000000000000815260008351611ce08160178501602088016119ba565b7001034b99036b4b9b9b4b733903937b6329607d1b6017918401918201528351611d118160288401602088016119ba565b01602801949350505050565b634e487b7160e01b600052602160045260246000fd5b808202811582820484141761047557610475611c69565b634e487b7160e01b600052603260045260246000fd5b600081611d6f57611d6f611c69565b50600019019056fea26469706673582212202df836ad47079af2b7291185edb5764716e38ed9a27937d4a7bb6cb463ae99e864736f6c63430008180033",
  "linkReferences": {},
  "deployedLinkReferences": {}
}