{
  "_format": "hh-sol-artifact-1",
  "contractName": "FlewPayLiquidation",
  "sourceName": "contracts/FlewPayLiquidation.sol",
  "abi": [
    {
      "inputs": [
        {
          "internalType": "address",
          "name": "_flewPayTokenAddress",
          "type": "address"
        },
        {
          "internalType": "address",
          "name": "_initialCompanyWallet",
          "type": "address"
        }
      ],
      "stateMutability": "nonpayable",
      "type": "constructor"
    },
    {
      "anonymous": false,
      "inputs": [
        {
          "indexed": false,
          "internalType": "address",
          "name": "previousWallet",
          "type": "address"
        },
        {
          "indexed": false,
          "internalType": "address",
          "name": "newWallet",
          "type": "address"
        }
      ],
      "name": "CompanyWalletUpdated",
      "type": "event"
    },
    {
      "anonymous": false,
      "inputs": [
        {
          "indexed": true,
          "internalType": "address",
          "name": "merchant",
          "type": "address"
        },
        {
          "indexed": false,
          "internalType": "uint256",
          "name": "totalAmount",
          "type": "uint256"
        },
        {
          "indexed": false,
          "internalType": "uint256",
          "name": "merchantAmount",
          "type": "uint256"
        },
        {
          "indexed": false,
          "internalType": "uint256",
          "name": "companyFee",
          "type": "uint256"
        }
      ],
      "name": "LiquidationProcessed",
      "type": "event"
    },
    {
      "anonymous": false,
      "inputs": [
        {
          "indexed": true,
          "internalType": "address",
          "name": "previousOwner",
          "type": "address"
        },
        {
          "indexed": true,
          "internalType": "address",
          "name": "newOwner",
          "type": "address"
        }
      ],
      "name": "OwnershipTransferStarted",
      "type": "event"
    },
    {
      "anonymous": false,
      "inputs": [
        {
          "indexed": true,
          "internalType": "address",
          "name": "previousOwner",
          "type": "address"
        },
        {
          "indexed": true,
          "internalType": "address",
          "name": "newOwner",
          "type": "address"
        }
      ],
      "name": "OwnershipTransferred",
      "type": "event"
    },
    {
      "inputs": [],
      "name": "COMPANY_FEE_PERCENTAGE",
      "outputs": [
        {
          "internalType": "uint256",
          "name": "",
          "type": "uint256"
        }
      ],
      "stateMutability": "view",
      "type": "function"
    },
    {
      "inputs": [],
      "name": "acceptOwnership",
      "outputs": [],
      "stateMutability": "nonpayable",
      "type": "function"
    },
    {
      "inputs": [],
      "name": "companyWallet",
      "outputs": [
        {
          "internalType": "address",
          "name": "",
          "type": "address"
        }
      ],
      "stateMutability": "view",
      "type": "function"
    },
    {
      "inputs": [],
      "name": "flewPayToken",
      "outputs": [
        {
          "internalType": "contract FlewPayToken",
          "name": "",
          "type": "address"
        }
      ],
      "stateMutability": "view",
      "type": "function"
    },
    {
      "inputs": [],
      "name": "getContractTokenBalance",
      "outputs": [
        {
          "internalType": "uint256",
          "name": "",
          "type": "uint256"
        }
      ],
      "stateMutability": "view",
      "type": "function"
    },
    {
      "inputs": [],
      "name": "owner",
      "outputs": [
        {
          "internalType": "address",
          "name": "",
          "type": "address"
        }
      ],
      "stateMutability": "view",
      "type": "function"
    },
    {
      "inputs": [],
      "name": "pendingOwner",
      "outputs": [
        {
          "internalType": "address",
          "name": "",
          "type": "address"
        }
      ],
      "stateMutability": "view",
      "type": "function"
    },
    {
      "inputs": [
        {
          "internalType": "address",
          "name": "merchant",
          "type": "address"
        },
        {
          "internalType": "uint256",
          "name": "amount",
          "type": "uint256"
        }
      ],
      "name": "processLiquidation",
      "outputs": [],
      "stateMutability": "nonpayable",
      "type": "function"
    },
    {
      "inputs": [
        {
          "internalType": "address",
          "name": "tokenAddress",
          "type": "address"
        },
        {
          "internalType": "uint256",
          "name": "amount",
          "type": "uint256"
        }
      ],
      "name": "recoverERC20",
      "outputs": [],
      "stateMutability": "nonpayable",
      "type": "function"
    },
    {
      "inputs": [],
      "name": "renounceOwnership",
      "outputs": [],
      "stateMutability": "nonpayable",
      "type": "function"
    },
    {
      "inputs": [
        {
          "internalType": "address",
          "name": "newOwner",
          "type": "address"
        }
      ],
      "name": "transferOwnership",
      "outputs": [],
      "stateMutability": "nonpayable",
      "type": "function"
    },
    {
      "inputs": [
        {
          "internalType": "address",
          "name": "_newCompanyWallet",
          "type": "address"
        }
      ],
      "name": "updateCompanyWallet",
      "outputs": [],
      "stateMutability": "nonpayable",
      "type": "function"
    }
  ],
  "bytecode": "0x608060405234801561001057600080fd5b50604051610b0e380380610b0e83398101604081905261002f916100f6565b6100383361006e565b6001600255600380546001600160a01b039384166001600160a01b03199182161790915560048054929093169116179055610129565b600180546001600160a01b03191690556100878161008a565b50565b600080546001600160a01b038381166001600160a01b0319831681178455604051919092169283917f8be0079c531659141344cd1fd0a4f28419497f9722a3daafe3b4186f6b6457e09190a35050565b80516001600160a01b03811681146100f157600080fd5b919050565b6000806040838503121561010957600080fd5b610112836100da565b9150610120602084016100da565b90509250929050565b6109d6806101386000396000f3fe608060405234801561001057600080fd5b50600436106100b45760003560e01c80637cf44912116100715780637cf449121461012c5780638980f11f1461013f5780638da5cb5b14610152578063d4f11ab214610163578063e30c397814610176578063f2fde38b1461018757600080fd5b80631ec32d15146100b9578063317d9453146100e957806356c6c7a6146100ff578063715018a6146101145780637768db031461011c57806379ba509714610124575b600080fd5b6004546100cc906001600160a01b031681565b6040516001600160a01b0390911681526020015b60405180910390f35b6100f161019a565b6040519081526020016100e0565b61011261010d3660046108b1565b61020c565b005b6101126104d0565b6100f1600281565b6101126104e4565b6003546100cc906001600160a01b031681565b61011261014d3660046108b1565b61055e565b6000546001600160a01b03166100cc565b6101126101713660046108db565b610650565b6001546001600160a01b03166100cc565b6101126101953660046108db565b61070f565b6003546040516370a0823160e01b81523060048201526000916001600160a01b0316906370a0823190602401602060405180830381865afa1580156101e3573d6000803e3d6000fd5b505050506040513d601f19601f8201168201806040525081019061020791906108fd565b905090565b610214610780565b6001600160a01b03821661026f5760405162461bcd60e51b815260206004820152601860248201527f496e76616c6964206d65726368616e742061646472657373000000000000000060448201526064015b60405180910390fd5b600081116102bf5760405162461bcd60e51b815260206004820152601d60248201527f416d6f756e74206d7573742062652067726561746572207468616e20300000006044820152606401610266565b600060646102ce60028461092c565b6102d89190610949565b905060006102e6828461096b565b60035460405163a9059cbb60e01b81526001600160a01b0387811660048301526024820184905292935091169063a9059cbb906044016020604051808303816000875af115801561033b573d6000803e3d6000fd5b505050506040513d601f19601f8201168201806040525081019061035f919061097e565b6103ab5760405162461bcd60e51b815260206004820152601860248201527f4d65726368616e74207472616e73666572206661696c656400000000000000006044820152606401610266565b6003546004805460405163a9059cbb60e01b81526001600160a01b0391821692810192909252602482018590529091169063a9059cbb906044016020604051808303816000875af1158015610404573d6000803e3d6000fd5b505050506040513d601f19601f82011682018060405250810190610428919061097e565b6104745760405162461bcd60e51b815260206004820152601b60248201527f436f6d70616e7920666565207472616e73666572206661696c656400000000006044820152606401610266565b60408051848152602081018390529081018390526001600160a01b038516907fc8fd5edbfcf78dbaaea6b43363192cca8f928b2359134db8ae1b599b4b5aa6f59060600160405180910390a250506104cc6001600255565b5050565b6104d86107d7565b6104e26000610831565b565b60015433906001600160a01b031681146105525760405162461bcd60e51b815260206004820152602960248201527f4f776e61626c6532537465703a2063616c6c6572206973206e6f7420746865206044820152683732bb9037bbb732b960b91b6064820152608401610266565b61055b81610831565b50565b6105666107d7565b61056e610780565b816001600160a01b03811663a9059cbb6105906000546001600160a01b031690565b6040516001600160e01b031960e084901b1681526001600160a01b039091166004820152602481018590526044016020604051808303816000875af11580156105dd573d6000803e3d6000fd5b505050506040513d601f19601f82011682018060405250810190610601919061097e565b6106455760405162461bcd60e51b8152602060048201526015602482015274151bdad95b881c9958dbdd995c9e4819985a5b1959605a1b6044820152606401610266565b506104cc6001600255565b6106586107d7565b6001600160a01b0381166106ae5760405162461bcd60e51b815260206004820152601e60248201527f496e76616c696420636f6d70616e792077616c6c6574206164647265737300006044820152606401610266565b600480546001600160a01b038381166001600160a01b031983168117909355604080519190921680825260208201939093527f1d5e0c7b4f5ad0c2bb1c612e95cbd78783dc323b9e89bcc68893dcbd8ebc2245910160405180910390a15050565b6107176107d7565b600180546001600160a01b0383166001600160a01b031990911681179091556107486000546001600160a01b031690565b6001600160a01b03167f38d16b8cac22d99fc7c124b9cd0de2d3fa1faef420bfe791d8c362d765e2270060405160405180910390a350565b60028054036107d15760405162461bcd60e51b815260206004820152601f60248201527f5265656e7472616e637947756172643a207265656e7472616e742063616c6c006044820152606401610266565b60028055565b6000546001600160a01b031633146104e25760405162461bcd60e51b815260206004820181905260248201527f4f776e61626c653a2063616c6c6572206973206e6f7420746865206f776e65726044820152606401610266565b600180546001600160a01b031916905561055b81600080546001600160a01b038381166001600160a01b0319831681178455604051919092169283917f8be0079c531659141344cd1fd0a4f28419497f9722a3daafe3b4186f6b6457e09190a35050565b80356001600160a01b03811681146108ac57600080fd5b919050565b600080604083850312156108c457600080fd5b6108cd83610895565b946020939093013593505050565b6000602082840312156108ed57600080fd5b6108f682610895565b9392505050565b60006020828403121561090f57600080fd5b5051919050565b634e487b7160e01b600052601160045260246000fd5b808202811582820484141761094357610943610916565b92915050565b60008261096657634e487b7160e01b600052601260045260246000fd5b500490565b8181038181111561094357610943610916565b60006020828403121561099057600080fd5b815180151581146108f657600080fdfea26469706673582212206f3c6f5a04c333880fddb81125af9c6b1194c153756bee6d3ec9e7b3cd46966564736f6c63430008180033",
  "linkReferences": {},
  "deployedLinkReferences": {}
}